:100000000040002019610000596100005B610000A0
:1000100000000000000000000000000000000000E0
:100020000000000000000000000000005D61000012
:1000300000000000000000005F610000616100003E
:100040006561000067610000F50900006B61000058
:100050006D610000000000004909000071610000AE
:100060007361000075610000776100007961000034
:100070007B6100007D6100007F6100008161000004
:1000800083610000856100008761000000000000BE
:10009000896100008B6100008D6100008F610000AC
:1000A000916100009361000000000000000000006A
:1000B0000000000000000000000000000000000040
:1000C00008B5064B064803331B1A062B00D808BD9B
:1000D000044B002BFBD09847F9E7C046E808002006
:1000E000E80800200000000008B50748074B1B1A6D
:1000F0009B10DA0FD318591000D108BD044A002A0A
:10010000FBD09047F9E7C046E8080020E808002047
:100110000000000010B5074C2378002B09D1FFF731
:10012000CFFF054B002B02D0044800E000BF0123A5
:10013000237010BDE8080020000000009CDD0000D6
:1001400008B5094B002B03D00848094900E000BF5F
:1001500008480368002B03D0074B002B00D09847BA
:10016000FFF7C2FF08BDC046000000009CDD000094
:10017000EC080020E408002000000000144B002BD5
:1001800000D1124B9D46402292029A1A92460021BB
:100190008B460F461148124A121A06F0E7F80D4B2B
:1001A000002B00D098470C4B002B00D09847002024
:1001B000002104000D000B4806F03CF806F070F832
:1001C0002000290000F094FA06F042F80000080030
:1001D000004000200000000000000000E8080020AF
:1001E000340C00207162000080B582B000AF7860EE
:1001F000A023DA057B6801219940A123DB00D150BF
:10020000BD4602B080BDC04680B500AF8023DA0590
:1002100080235B000021D1508023DB0501221A607E
:10022000C0468023DA0580235B00D358002BF8D02A
:100230008023DA0582235B000021D1508023DB0577
:1002400001229A60C0468023DA0582235B00D358DE
:10025000002BF8D08023DA0586235B000021D150E3
:100260008023DB0501221A61C0468023DA0586233C
:100270005B00D358002BF8D0BD4680BD80B582B05E
:1002800000AF78607B6800221A600023181CBD460E
:1002900002B080BD80B582B000AF78607B6800227C
:1002A0001A600023181CBD4602B080BD80B582B024
:1002B00000AF78607B6800221A600023181CBD46DE
:1002C00002B080BDB0B5A8B002AFF860B960FB1D48
:1002D0001A70FA683A4B9A4205D13A4B01221A60D9
:1002E000394B01221A70FA6882231B029A4203D109
:1002F000364B181C00F0FAFBFA68354B9A4206D1CF
:10030000344B181C00F0F2FB334B01221A60FA68E0
:10031000324B9A420FD1324B181C00F0E7FB2E4BA8
:1003200000221A602F4B00221A602F4B00221A6005
:100330002E4B01221A70FA682D4B9A4232D12D4B66
:10034000181C00F0D3FBBB6814331B78002B26D19C
:10035000244B01221A60BB689420C01903609421C9
:10036000C9190B68DB781A1C9420C01903689B78A4
:100370009420C019016849780D1C9420C0190168A7
:1003800009780C1C381C14301B490095019406F0A8
:100390005BF83B1C1433181C00F0A8FB02E0114B67
:1003A00000221A60FB68992B06D10D4B181C00F037
:1003B0009DFB124B01221A60BD4626B0B0BDC0465F
:1003C00080800000B4090020B809002088D5000012
:1003D0000180000094D50000C409002002800000C4
:1003E000A0D50000C0090020B00900200B000020AB
:1003F00010800000B0D50000B8D50000C80900206A
:1004000080B500AF00F096FA031C181CBD4680BDF5
:1004100080B500AF00F076FABD4680BD80B500AF74
:1004200000F07CFABD4680BD80B582B000AF021CF2
:10043000FB1D1A70FB1D1B78002B02D000F052FA36
:1004400001E000F057FABD4602B080BD90B585B01E
:1004500004AF124B00221A60114B00221A60114B9C
:1004600000221A60104B00221A6010481049114AED
:10047000114B124C0094124C0194124C0294124CE9
:10048000039402F0E5FF002003F01CF80F4B181C4A
:1004900003F05EFCBD4601B090BDC046C00900201F
:1004A000C4090020BC090020B4090020C5020000D6
:1004B0007D02000095020000AD0200000104000072
:1004C000110400001D040000290400004482000003
:1004D00080B596B006AF3A1C134B111C1A1C402372
:1004E000081C111C1A1C05F0FFFE104B0093502332
:1004F0005B42019300230293CD2303933B1C04939F
:10050000012064216422052303F0AAFB031C002BB5
:1005100003D0074B181C00F0E9FA064B181C00F03A
:10052000E5FABD4610B080BDECD50000FF07000025
:10053000D4D50000DCD5000080B58CB002AFFFF749
:10054000C7FF00200021002203F024F9324B181CC1
:1005500000F0CCFA314B7B627B6A181C05F096FFE9
:10056000031C3B623B1C103300221A703B1C1033EF
:1005700000225A703B1C103300229A703B1C10332F
:100580000022DA703B1C103300221A713B1C10331E
:1005900000225A71796A3A6A3B1C1033002000909D
:1005A00000200190002003F011F8031C002B04D060
:1005B0001B4B181C00F09AFAFFE7C046194B1B684A
:1005C000002BFBD002200221112202F06DF9031C46
:1005D000FB613B1C02221A803B1C134A5A803B1CC5
:1005E000124A5A60124BBB61BB69181C05F04EFFE2
:1005F000031CF969BA69381C009010200190081C8E
:10060000111C1A1C002302F085FEFA239B00181C03
:1006100005F06EFDE8E7C0462CD600003CD6000091
:10062000D4D50000C00900200DACFFFFC0A8010216
:1006300044D6000080B500AF264B00221A60264B3E
:1006400000221A60254B00221A60254B00221A60F6
:1006500000200021002203F09DF8FF2003F0B2FAF1
:10066000C0461D4B1B68012BFBD0012005F040FD4F
:1006700001F0C2FA1B4B181C03F018FC012003F018
:10068000CDFBC046134B1B68002BFBD00C20102168
:1006900002F0A2F8144B181C05F06CFC03F046FCA9
:1006A00000200021012203F075F802F075FFFA2303
:1006B0009B00181C05F01CFD002002F003FF0B4BF3
:1006C000181C03F045FBC046044B1B68002BFBD0F5
:1006D000BD4680BDB4090020C4090020C009002027
:1006E000C809002074D5000078D5000044820000BD
:1006F00080B584B000AFFFF787FD0A2005F0F8FC55
:1007000000F0A4F9204B181C00F0F0F900F0C8F834
:100710000A2005F0EDFC00F0D5FAFFF797FE1B4B21
:10072000181C00F0E3F93B1C0833181C01F0C6FF4D
:100730003B1D181C02F024F81220FFF755FDFFF7AF
:1007400079FF3B1C0F3300221A7012E0104B181C6B
:1007500005F09CFE031C9BB20D4A0120111C1A1CC3
:1007600002F0F0FD3B1C0F331A783B1C0F330132B3
:100770001A703B1C0F331B78022BE7D91320FFF7AD
:1007800033FD30BFFDE7C04648D600005CD6000010
:100790000400002080B582B000AF021CFB1D1A705F
:1007A000064BFA1D1278111C1F220A400121081C59
:1007B0009040021C1A60BD4602B080BD00E100E01E
:1007C00080B582B000AF786039600AE0A023DB0515
:1007D0007A68C132FF3292000121D1507B68013327
:1007E0007B607A683B689A42F0D9BD4602B080BD12
:1007F00080B582B000AF7860A023DB057A68C13293
:10080000FF3292000121D150BD4602B080BDC046EA
:1008100080B582B000AF78600A1CFB1C1A70A02360
:10082000DB05FA1C12789200111C7A68C132FF3283
:100830009200D150BD4602B080BDC04680B582B0A6
:1008400000AF7860A023DA057B6801219940A123DD
:10085000DB00D150BD4602B080BDC04680B582B03D
:1008600000AF7860A023DA057B6801219940024B34
:10087000D150BD4602B080BD0C05000080B582B0ED
:1008800000AF7860A023DA05A223DB00D2587B6892
:10089000DA4001231340181CBD4602B080BDC0469B
:1008A00080B500AF12201321FFF78AFF102003212B
:1008B000FFF7AEFF03200321FFF7AAFF0020FFF799
:1008C000CDFF0020FFF794FF0620FFF763FF034AE8
:1008D000A223DB000249D150BD4680BD006000402C
:1008E0000103020080B500AF0020FFF7A7FFBD465F
:1008F00080BDC04680B500AF0020FFF7AFFFBD460A
:1009000080BDC04680B500AF034AC1239B000121D2
:10091000D150BD4680BDC0460060004080B500AFEC
:10092000034AC2239B000121D150BD4680BDC04671
:100930000060004080B500AF0320FFF79FFF031C5D
:10094000181CBD4680BDC04680B500AF0A4A802352
:100950005B00D358012B0DD1074AC1239B00D2580D
:100960000123134006D0044A80235B000021D150AC
:1009700000F09EFBBD4680BD0060004080B582B0A7
:1009800000AF021CFB1D1A70064BFA1D1278111CD9
:100990001F220A400121081C9040021C1A60BD461B
:1009A00002B080BD00E100E080B582B000AF7860A9
:1009B000A023DB057A68C132FF3292000121D150B9
:1009C000BD4602B080BDC04680B582B000AF786041
:1009D0000A1CFB1C1A70A023DB05FA1C127892007B
:1009E000111C7A68C132FF329200D150BD4602B06C
:1009F00080BDC04680B500AF114A84235B00D35848
:100A0000012B1AD10E4AC1239B00D2580423134054
:100A100013D00B4A84235B000021D150094B1B7873
:100A20000749A322D2008A58D1B2074AD154054BB4
:100A30001B780133DAB2034B1A70BD4680BDC04645
:100A400000200040680900200409002080B500AFA4
:100A50000920FFF7A9FF0B200021FFF7B5FF0820B1
:100A6000FFF7A2FF0A200021FFF7AEFF194A1A4B39
:100A70000921D150174A194B0B21D150154AA223F5
:100A8000DB000A21D150134AA123DB000821D150F9
:100A9000104A134B0121D1500E4A124B1249D1502A
:100AA0000C4AA023DB000421D1500220FFF766FF8F
:100AB000084AC1239B000421D150064B01229A60B1
:100AC000044B01221A60034A84235B000021D150A9
:100AD000BD4680BD002000400C050000140500004C
:100AE0006C050000240500000050270080B582B08E
:100AF00000AF78607B68181C00F028F8034B181CC6
:100B000000F024F8BD4602B080BDC04670D600009B
:100B100080B582B000AF021CFB1D1A70094AFB1D94
:100B20001978094BD150C046064A8E235B00D35832
:100B3000012BF9D1034A8E235B000021D150BD4621
:100B400002B080BD002000401C05000080B584B0CC
:100B500000AF78600023FB6009E0FB687A68D31877
:100B60001B78181CFFF7D4FFFB680133FB60FB68A0
:100B70007A68D3181B78002BEFD10123181CBD46CF
:100B800004B080BD80B582B000AF7860A023DB05E3
:100B90007A68C132FF3292000121D150BD4602B0C5
:100BA00080BDC04680B582B000AF78600A1CFB1CD7
:100BB0001A70A023DB05FA1C12789200111C7A68C7
:100BC000C132FF329200D150BD4602B080BDC04656
:100BD00080B582B000AF7860A023DA057B68012180
:100BE0009940A123DB00D150BD4602B080BDC04674
:100BF00080B582B000AF7860A023DA057B68012160
:100C00009940024BD150BD4602B080BD0C0500009A
:100C100080B582B000AF78600138C046C046C0469B
:100C2000C046C046C046C046C046C046C046C04694
:100C3000C046C046C046EFD1BD4602B080BDC046EA
:100C400080B500AFBD4680BD80B500AF054B1B69C8
:100C5000002B02D0034B00221A61034B5B6A9847BA
:100C6000BD4680BD500A00202C0B002080B582B00C
:100C700000AF78600F4B00229A600E4B7A681A60C2
:100C80000C4B00229A800B4B0022DA60094B0A4A77
:100C90001A61084B0022DA80074A8223DE21D154F0
:100CA000064A8223DE21D154054B1B6A9847BD4674
:100CB00002B080BD500A0020CC090020640A002048
:100CC0002C0B002080B582B000AF0120FFF75AFF47
:100CD0000220FFF757FF04200021FFF763FF0520E4
:100CE000FFF750FF154AA123DB000121D150134A21
:100CF000134B0221D150114AA223DB000421D15011
:100D00000520FFF765FF0D4A0E4B80218904D15065
:100D100002237B60094A0C4B7968D150074A84232F
:100D20005B000021D150054AA023DB000121D150F6
:100D30000023181CBD4602B080BDC04600300040F4
:100D40000C050000240500005405000080B582B0A9
:100D500000AF78600A1CBB1C1A800520FFF748FF13
:100D60003220FFF755FF7B68181C042100F0B8F80B
:100D70003220FFF74DFF7B681A1DBB1C1B88043B0C
:100D80009BB2101C191C00F0ABF8054B02229A60B4
:100D90000520FFF71DFF0023181CBD4602B080BDD3
:100DA000500A002080B584B000AF78600A1CBB1CDC
:100DB0001A803B1C0F3300221A70BB1C1A880123B7
:100DC000134006D13B1C0F331A783B1C0F33013202
:100DD0001A707B6801221A707B680133BA1C118873
:100DE0003A1C0F3212788918FF2212020A4012129E
:100DF000D2B21A707B680233BA1C1288D1B23A1C84
:100E00000F3212788A18D2B21A707B68033300222C
:100E10001A707B68043300221A703B1C0F331B7856
:100E20009AB2BB1C1B88D3189AB2BB1C05321A801D
:100E3000284A8223D35CDE2B00D0FEE7264B9B683A
:100E4000002B04D1C046244B9B68012BFBD1224BC5
:100E50009B68012B07D17A68BB1C1B88101C191CCE
:100E6000FFF774FF2CE01D4B5B6A9847C0461A4B96
:100E70009B68022BFBD1184B03229A60164B7A68B1
:100E8000DA60154BBA1C12889A800520FFF7B0FE75
:100E9000124B1B6A9847114BDB699847031C002BC8
:100EA0000ED10D4BDA680C4B9B88101C191C00F0FE
:100EB00017F8094B02229A600520FFF789FEFFE729
:100EC000C046054B9B68022BFBD10023181CBD4676
:100ED00004B080BD640A0020500A00202C0B0020C2
:100EE00080B582B000AF78600A1CBB1C1A801DE080
:100EF000124A7B681B78191C114BD150C0460F4A0F
:100F000084235B00D358002BF9D00C4A84235B0068
:100F10000021D150094AA323DB00D358BB1C1A88F7
:100F2000BB1C013A1A807B6801337B60BB1C1B88A9
:100F3000002BDDD1BD4602B080BDC0460030004070
:100F40001C05000080B584B000AF78600A1CBB1C93
:100F50001A80154BFB6020E0144AFB681B78191CB3
:100F6000134BD150C046114A84235B00D358002B49
:100F7000F9D00E4A84235B000021D1500B4AA323F1
:100F8000DB00D358DAB27B681A70BB1C1A88BB1C12
:100F9000013A1A807B6801337B60BB1C1B88002BE5
:100FA000DAD1BD4604B080BD0C0000200030004006
:100FB0001C05000080B500AF034B1B69181C0A21FB
:100FC000FFF7C0FFBD4680BD500A002080B584B049
:100FD00000AF284B1B69BB600023FB60BB685A1D38
:100FE000FB1D12781A70FB1D1B78022B02D0042BFC
:100FF0001DD03AE0BB680533181C032100F0ECF863
:10100000031CFB60FA680123134002D1FB68013323
:10101000FB60FB68002B09D0BB681A1C0A32FB6816
:101020009BB2101C191CFFF78DFF1EE01DE0BB6872
:1010300008331B78FB60FB68013BFB60FA68012307
:10104000134002D0FB680133FB60FB68002B08D023
:10105000BB681A1C0A32FB689BB2101C191CFFF7F4
:1010600071FF044B08229A60C0460023181CBD463D
:1010700004B080BD500A002080B500AF00F05CF8DD
:101080000520FFF7A5FD094B1B6982331B78DE2B7A
:1010900000D0FEE7054B02229A60044B1A68034B0E
:1010A0001B690533181C9047BD4680BD500A0020BF
:1010B00080B500AF164B9B68002B03D1144B012267
:1010C0009A6023E0124B9B68022B0DD1104B062235
:1010D0009A600520FFF78CFDFFF76CFF0C4B082290
:1010E0009A6000F017F811E0094B9B68032B0DD1B3
:1010F000074BDA68064B9B88101C191CFFF7F0FEA3
:10110000034B02229A600520FFF762FDBD4680BDB9
:10111000500A002080B500AFFFF758FF031C002BDA
:1011200001D1FFF7A9FFBD4680BDC04680B500AF25
:10113000FFF7E8FBBD4680BD80B500AFFFF7EEFBD3
:10114000BD4680BD80B582B000AF78603960BD46D5
:1011500002B080BD80B582B000AF786039607B6836
:101160005A1C7A603A68D2B21A707B685A1C7A604C
:101170003A68120AD2B21A707B685A1C7A603A68CE
:10118000120CD2B21A707B685A1C7A603A68120E3E
:10119000D2B21A707B68181CBD4602B080BDC04632
:1011A00080B582B000AF78600A1CBB1C1A807B68D7
:1011B0005A1C7A60BA1C1288D2B21A707B685A1C08
:1011C0007A60BA1C1288120A92B2D2B21A707B6884
:1011D000181CBD4602B080BD80B582B000AF7860FB
:1011E0000A1CBB1C1A80BB1C1B8801337A68D318ED
:1011F0001B781B029AB2BB1C1B887968CB181B7822
:10120000D3189BB2181CBD4602B080BD80B582B019
:1012100000AF78600A1CBB1C1A80BB1C1B88033300
:101220007A68D3181B781A06BB1C1B8802337968AE
:10123000CB181B781B04D218BB1C1B8801337968A0
:10124000CB181B781B02D218BB1C1B887968CB18E3
:101250001B78D318181CBD4602B080BD80B586B07F
:1012600000AF78607B6805337B610023FB607B699E
:101270001B78022B25D0032B44D0012B00D062E039
:10128000324B1B69002B13D0304B1B693A1C0C32BC
:10129000101C9847031C3B613B69002B08D02B4B6B
:1012A0009968FB689BB23A69012000F079FE4AE038
:1012B000264B9B680120191C0022002300F070FEC1
:1012C00041E0224BDB68002B13D0204BDB683A1C3B
:1012D0000C32101C9847031C3B613B69002B08D063
:1012E0001A4B9968FB689BB23A69022000F058FEDD
:1012F00029E0164B9B680220191C0022002300F0F5
:101300004FFE20E0114B5B69002B13D00F4B5B6944
:101310003A1C0C32101C9847031C3B613B69002BA4
:1013200008D00A4B9968FB689BB23A69032000F029
:1013300037FE08E0054B9B680320191C00220023A0
:1013400000F02EFEC046BD4606B080BD2C0B00202E
:1013500090B58DB000AFF860B9607A603B1C2E3359
:1013600000221A80C54B1B681B0C9BB2002B00D1BE
:10137000C7E2C24B5B687B627B6A1B78042B00D0A0
:1013800060E23C1C2E347B6A181C0121FFF724FF0D
:10139000031C23807B6A05333B623B6AFB61FB686D
:1013A000BB627B6A181C00F0B3FA031C002B00D050
:1013B0003CE27B6A03331A783B1C1A331A803B1CCD
:1013C0002E331B88AE4A934238DCAE4A934200DB90
:1013D00089E0AD4A934200D185E0AB4A934213DCE9
:1013E0000C2B09DC082B00DB7DE0012B00DA1DE271
:1013F000062B00DC77E067E10D2B00D16EE0A34AFD
:10140000934200D16AE011E2A14A93420DDCA14A65
:10141000934200DB67E081229200934200DC5DE0B2
:101420009D4A934200D167E000E29C4A934200D17A
:10143000AAE09A4A934200DD87E0D0E0984A9342BE
:101440004CD0974A934219DC964A93424BD0954A26
:10145000934207DC944A934245D0934A934200DD7D
:10146000FEE0D3E0914A934200D1B8E08F4A934224
:1014700057DC8F4A934200D186E0D7E18D4A9342F0
:101480002CD08C4A934207DC8B4A934200DACDE1A0
:101490008A4A934222DD45E18022D201934200D163
:1014A000C3E18022D201934205DC854A9B18012BBF
:1014B00000D9BBE112E0834A934200D0B6E13B6A17
:1014C0001B781A1C6D4B1A863B6A181C0121FFF70A
:1014D00083FE031C1A1C694B5A86A7E17B6A1A79A2
:1014E000FB681A70A2E13B6A181C0021FFF78EFE10
:1014F000021CFB681A6099E17B6A1A79FB681A7012
:10150000FB680133FB603B6A181C0021FFF77EFE7D
:10151000031C7B61FA687B69101C191CFFF71AFE1B
:1015200084E13B6A181C0021FFF770FE021CFB6877
:101530001A60FB680433FB603B6A181C0421FFF748
:1015400065FE021CFB681A6070E13B6A181C0021F2
:10155000FFF75CFE021CFB681A60FB680433FB604B
:101560003B6A181C0421FFF751FE021CFB681A603D
:10157000FB680433FB603B6A0833FA68101C191CD3
:10158000102204F0B1FE51E13B6A181C0021FFF764
:101590003DFE021CFB681A60FB680433FB603B6A7B
:1015A000181C0421FFF732FE021CFB681A60FB685E
:1015B0000433FB603B6A181C0821FFF727FE021C5E
:1015C000FB681A60FB685B681A1C393206D1FB683D
:1015D0001B68181C012100F037FB27E126E13B6A5C
:1015E000181C0021FFF712FE021CFB681A60FB6842
:1015F0000433FB603B6A181C0421FFF707FE021C42
:10160000FB681A60FB680433FB600FE13B6A181C3F
:101610000021FFF7FBFD021CFB681A60FB68043326
:10162000FB603B6A181C0421FFF7F0FD021CFB68FD
:101630001A60FB680433FB603B6A181C0821FFF743
:10164000E5FD021CFB681A60FB680433FB603B6A23
:10165000181C0C21FFF7DAFD021CFB681A60E5E09C
:101660007B6A04331A78FB681A71FA683B6A101CAB
:10167000191C042204F038FED8E0C0462C0B0020D0
:101680000710000006100000020200000102000026
:10169000021000000110000007020000041000000A
:1016A000111000000B100000091000000F100000C6
:1016B0000D100000062000000120000004200000A2
:1016C000F8DFFFFF0B4000003B6A181C0021FFF70A
:1016D0009DFD021CFB681A60FB680433FB603B6ADB
:1016E000181C0421FFF792FD021CFB681A60FB68BE
:1016F0000433FB603B6A181C0821FFF76DFD031CD7
:101700001A1CFB681A60FB680233FB60FB6802333B
:10171000FB603B6A0C33FA68101C191C262204F08B
:10172000E3FD83E000240AE0BB6A5A1CBA6222B2DD
:10173000F9698A1812781A70A3B201339CB223B2E5
:10174000032BF1DDFB690433FB6100240AE0BB6A73
:101750005A1CBA6222B2F9698A1812781A70A3B2B6
:1017600001339CB223B2032BF1DDFB690433FB612F
:1017700000240AE0BB6A5A1CBA6222B2F9698A18CC
:1017800012781A70A3B201339CB223B2032BF1DD9D
:10179000FB690433FB6100240AE0BB6A5A1CBA628D
:1017A00022B2F9698A1812781A70A3B201339CB276
:1017B00023B2032BF1DDFB690433FB6100240AE053
:1017C000BB6A5A1CBA6222B2F9698A1812781A7076
:1017D000A3B201339CB223B2032BF1DDFB690433C6
:1017E000FB6100240AE0BB6A5A1CBA6222B2F969A2
:1017F0008A1812781A70A3B201339CB223B2052B57
:10180000F1DDFB690633FB6100240AE0BB6A5A1C68
:10181000BA6222B2F9698A1812781A70A3B2013337
:101820009CB223B21F2BF1DD00E0C046374B1B6892
:101830009BB23A1C2E3212889A4241D1334B00227D
:101840001A803DE07B6A3B627B6A9A1C3B1C133327
:1018500012781A703C1C1A347B6A181C0321FFF79B
:10186000BBFC031C2380BB68002B13D07B6A0533B1
:10187000181C0421FFF7CAFC021C7B681A607B6AF3
:101880001A1C15327B681B78B968081C111C1A1CBD
:1018900004F02AFD3B1C13331B7805333A6AD21837
:1018A0003B1C1A3319883B1C13331B78CB1AF9687D
:1018B000081C111C1A1C04F017FD144B0022DA86B8
:1018C000124B00225A80FFF731FC7B6A1B78042BF5
:1018D0000AD13B1C2E331A8880235B019A4203D124
:1018E0007B6A181CFFF7BAFC084B1B689BB2002BE5
:1018F00007D1064B5B6B1B0C9BB2002B01D1002365
:1019000000E02FE5181CBD460DB090BD2C0B00204B
:1019100090B595B000AF78600023BB647B68181C5D
:101920000121FFF759FC031C7B647A6C8023DB01E7
:1019300013401FD07A6C8223DB019A421AD17B6854
:10194000181C00F0AFF9A24BDB6B3B64A04B9B6B08
:10195000FB633A6CFB6B9A420AD19D4B1B6CDBB26A
:10196000002B05D09A4B9B699920002100229847B3
:10197000012329E17A6C80231B02134000D1F9E096
:101980007B6C944A93422FD0924A93420ADC924A4B
:10199000934200DAEAE0914A934218DD904A93427A
:1019A00015D0E3E08F4A934211D08E4A934204DC73
:1019B0008D4A934200D18DE0D8E0822212029342F8
:1019C00005D088221202934200D1C2E0CEE0804BC3
:1019D0009B69002B07D07E4B9B697A6C101C002101
:1019E00000229847C4E0C3E03B1C1C33FB647B68C7
:1019F0000533BB6400240AE0FB6C5A1CFA6422B273
:101A0000B96C8A1812781A70A3B201339CB223B24F
:101A1000032BF1DDBB6C0433BB6400240AE0FB6CD8
:101A20005A1CFA6422B2B96C8A1812781A70A3B2DE
:101A300001339CB223B2032BF1DDBB6C0433BB64D6
:101A400000240AE0FB6C5A1CFA6422B2B96C8A18B2
:101A500012781A70A3B201339CB223B2032BF1DDCA
:101A6000BB6C0433BB6400240AE0FB6C5A1CFA64B0
:101A700022B2B96C8A1812781A70A3B201339CB2E0
:101A800023B2032BF1DDBB6C0433BB6400240AE0FA
:101A9000FB6C5A1CFA6422B2B96C8A1812781A705C
:101AA000A3B201339CB223B2032BF1DD7B68043374
:101AB0001A78FB6C1A70464B9B69002B09D0444B7B
:101AC0009B69796C3A1C1C32081C111C1522984722
:101AD0004EE04DE07B680533BB64BB6C181C0021F5
:101AE000FFF794FB021C3B1C08331A60BB6C181CEC
:101AF0000421FFF78BFB021C3B1C08335A60BB6CB4
:101B0000181C0821FFF782FB021C3B1C08339A605B
:101B1000BB6C181C0C21FFF779FB021C3B1C083323
:101B2000DA60BB6C181C1021FFF770FB021C3B1C19
:101B300008331A61264B9B69002B09D0244B9B6903
:101B4000796C3A1C0832081C111C142298470FE0CB
:101B50000EE01F4B9B69002B07D01D4B9B697A6CD5
:101B6000101C00210022984702E001E000232BE036
:101B7000012329E07A6C1D4B9A4207D07A6C1C4BEA
:101B80009A4203D07A6C1B4B9A421CD17B68053376
:101B9000BB63BB6B181C0421FFF738FB031C7B6382
:101BA0007B6B1A1C39320CD17B6804331B781A1CEE
:101BB000074BDA627B680533181C00F0DFF801235D
:101BC00002E0002300E00023181CBD4615B090BDC4
:101BD0002C0B00201080000001800000028000001B
:101BE000048000008080000040800000031000009E
:101BF0000F1000000E10000080B582B000AF00236F
:101C00007B60104B1B681B0C9BB2002B14D00D4B40
:101C10005B683B603B681B78042B0DD13B68181C4C
:101C2000FFF776FE031C012B06D1064B00225A80DB
:101C300001237B60FFF77AFA7B68181CBD4602B06F
:101C400080BDC0462C0B002080B582B000AF78600C
:101C500039607B68002B1FDB7B68072B1CDC3B6833
:101C6000002B02D03B68012B16D101227B68111C8E
:101C700099400B1CDB431A1C094B1B681A40084B8C
:101C80001A603A687B68111C99400B1C1A1C044BA3
:101C90001B681A43024B1A60BD4602B080BDC046A5
:101CA0001400002090B589B000AF78603B1C12335F
:101CB00000221A803C1C12347B68181C0521FFF797
:101CC0008BFA031C23807B6807337B610023FB6155
:101CD0003B1C1A3300221A8014E07B69181C022175
:101CE000FFF77AFA031CFB60FA69FB68D318FB6103
:101CF0007B6904337B613B1C1A331A883B1C1A3303
:101D000001321A803A1C1A323B1C123312881B888B
:101D10009A42E2D3094B1B6B9AB2FB699BB2D31870
:101D20009AB2064B1A86054BDA6BFB69D218034B45
:101D3000DA630023181CBD4609B090BD2C0B0020AF
:101D400080B582B000AF78607B68002B0FDB7B68CA
:101D5000072B0CDC01227B68111C99400B1C1A1C00
:101D6000054B1B6813405A1E9341DBB200E0012370
:101D7000181CBD4602B080BD1400002080B584B0A0
:101D800000AF78607B68181C0021FFF73FFA031C46
:101D9000FB607B68181C0421FFF738FA031CBB604A
:101DA000BB681A1C393204D1FB68181C0121FFF7EB
:101DB0004BFFBD4604B080BD80B582B000AF021CB1
:101DC0003960BB1D1A80064BBA1D12881A803B6809
:101DD000181C00210022FFF7BBFABD4602B080BDEF
:101DE0002C0B002080B584B000AFF860B9607A6039
:101DF000064B0122DA86F968BA687B68081C111C58
:101E00001A1CFFF7A5FABD4604B080BD2C0B0020BC
:101E100080B584B000AF3960BB1D011C19807B1DEB
:101E20001A703B680533FB60FB685A1CFA6001229C
:101E30001A70FA68BB1D1B88101C191CFFF7B0F93B
:101E4000031CFB60FB685A1CFA607A1D12781A703A
:101E50007B1D1B789BB204339BB23A68101C191C83
:101E6000FEF7A0FF0023181CBD4604B080BDC0468D
:101E700080B586B000AFB960111C1A1C3B1C0F3333
:101E800018703B1C0C331980BB1D1A80BB680533CE
:101E90007B617B695A1C7A6102221A707B695A1C29
:101EA0007A613A1C0F3212781A707B695A1C7A6177
:101EB0003A1C0C321288D2B21A703A1C0C32BB1D7A
:101EC00012881B88D3189AB23B1C24331B88D31862
:101ED0009BB27A69101C191CFFF762F9031C7B6125
:101EE0003A1C0C32BB1D12881B88D3189AB23B1CBB
:101EF00024331B88D3189BB205339BB2BA68101CDD
:101F0000191CFEF74FFF0023181CBD4606B080BD0C
:101F100080B586B000AFB960111C1A1C3B1C0E3393
:101F200018803B1C0D331970BB1D1A80BB6805332C
:101F30007B617B695A1C7A6102221A707B695A1C88
:101F40007A613A1C0E321288D2B21A707B695A1C1E
:101F50007A613A1C0D3212781A703B1C0D331B78D3
:101F60009AB2BB1D1B88D3189BB27A69101C191C2E
:101F7000FFF716F9031C7B613B1C0D331B789AB2EB
:101F8000BB1D1B88D3189BB205339BB2BA68101CCB
:101F9000191CFEF707FFC046BD4606B080BDC0460F
:101FA00090B589B000AFB9607A601A1C3B1C0F3342
:101FB000011C19703B1C0C331A80BB680533BB61D4
:101FC000BB6805337B617B695A1C7A6103221A70F6
:101FD0007B695A1C7A613A1C0F3212781A703B1CCA
:101FE0000C331B8802339BB27A69101C191CFFF753
:101FF000D7F8031C7B613B1C0C331A88FA239B0027
:102000009A4228D87A693B1C0C331B88101C191C77
:10201000FFF7C6F87A693B1C0C331B88101C191C8F
:10202000FFF7BEF8031C7B61BB68191C0B313B1C1E
:102030000C331B887A68081C111C1A1C04F054F914
:102040003B1C0C331B8806339BB2BA68101C191C4E
:10205000FEF7A8FE8AE03C1C1E343B1C0C331B8898
:10206000181CFA23990004F095F8031C23803B1CEC
:102070001E331B88DB189AB23B1C0C331B88D31809
:102080009BB202339BB27A69101C191CFFF788F8C7
:102090007A69FA239B00101C191CFFF781F8031CB6
:1020A0007B61BB68191C0B317A68FA239B00081C02
:1020B000111C1A1C04F018F93B1C0C333A1C0C328E
:1020C00012882C4952181A807B68FA2292009B18B9
:1020D0007B60BA68284B101C191CFEF763FE40E0B9
:1020E0003B1C0C331A88FA239B009A420AD83B1CEB
:1020F0001E333A1C0C3212881A803B1C0C3300220F
:102100001A800EE03B1C1E33FA2292001A803B1C00
:102110000C33391C0C313A1C1E32098812888A1A79
:102120001A80BB693A1C1E3212881A80BB69991C3E
:102130003B1C1E331B887A68081C111C1A1C04F0F7
:10214000D3F83B1C1E331B887A68D3187B603B1C7A
:102150001E331B8802339BB2BA69101C191CFEF790
:1021600021FE3B1C0C331B88002BB9D1BD4609B0A6
:1021700090BDC04618FCFFFFEE03000080B582B0A2
:1021800000AF78607B68181C00F088FA031C181CEC
:10219000BD4602B080BDC04690B589B000AFF860C2
:1021A000B9607A603B603B1C1733FF221A70314BD9
:1021B0009B68BB61BB690933FB6100240AE0FB69D2
:1021C0005A1CFA6122B2F9688A1812781A70A3B2FE
:1021D00001339CB223B2032BF1DD00240AE0FB693A
:1021E0005A1CFA6122B2B9688A1812781A70A3B21E
:1021F00001339CB223B2032BF1DD00240AE0FB691A
:102200005A1CFA6122B279688A1812781A70A3B23D
:1022100001339CB223B2032BF1DDFB69181C0021B2
:10222000FEF798FF031CFB6100240AE0FB695A1CBF
:10223000FA6122B239688A1812781A70A3B201338F
:102240009CB223B2032BF1DD0B4ABB69101C191C95
:102250001422FFF7DDFD084A3B1C1733101C191C24
:10226000FFF7AAFD3B1C17331B785BB2181CBD4659
:1022700009B090BD2C0B00200120000080B588B073
:1022800000AFF860B9607A603B603B1C1733FF22F7
:102290001A70364B9B68FB61FB690933BB61FB68B5
:1022A0001B68002B06D0FB681B68132B02D8FB6849
:1022B00014221A60BB681B68002B06D0BB681B6821
:1022C000132B02D8BB6814221A607B681B68002B92
:1022D00006D07B681B68132B02D87B6814221A6017
:1022E0003B681B68002B06D03B681B68132B02D889
:1022F0003B6814221A60FB681B68BA69101C191C21
:10230000FEF728FF031CBB61BB681B68BA69101C81
:10231000191CFEF71FFF031CBB617B681B68BA69B1
:10232000101C191CFEF716FF031CBB613B681B68E1
:10233000BA69101C191CFEF70DFF031CBB610C4A87
:10234000FB69101C191C1422FFF762FD084A3B1C94
:102350001733101C191CFFF72FFD3B1C17331B787C
:102360005BB2181CBD4608B080BDC0462C0B0020D7
:102370000920000080B588B000AFF860B9607A60CD
:102380003B603B1C1733FF221A701E4B9B68FB619E
:10239000FB690933BB61FB681B68BA69101C191C17
:1023A000FEF7D8FE031CBB61BA69BB68101C191C80
:1023B000FEF7D0FE031CBB61BA697B68101C191CB8
:1023C000FEF7C8FE031CBB61BA693B68101C191CF0
:1023D000FEF7C0FE031CBB610B4AFB69101C191CF5
:1023E0001022FFF715FD084A3B1C1733101C191C5F
:1023F000FFF7E2FC3B1C17331B785BB2181CBD4691
:1024000008B080BD2C0B00200220000080B582B0F7
:1024100000AF0B4B9B687B60FB1CFF221A70094AC4
:102420007B68101C191C0022FFF7F2FC054AFB1CFC
:10243000101C191CFFF7C0FCBD4602B080BDC04691
:102440002C0B00200320000080B582B000AFFB1CE5
:10245000FF221A700B4B9B687B600B4A7B68101C39
:10246000191C0022FFF7D4FC074AFB1C101C191C86
:10247000FFF7A2FCFB1C1B785BB2181CBD4602B028
:1024800080BDC0462C0B00200420000080B584B025
:1024900000AF7860094B9B68FB60094AFB68101C21
:1024A000191C0022FFF7B4FC054A7B68101C191C9C
:1024B000FFF782FCBD4604B080BDC0462C0B002057
:1024C0000520000080B582B000AFFB1CFF221A700F
:1024D0000B4B9B687B600B4A7B68101C191C00220D
:1024E000FFF796FC074AFB1C101C191CFFF764FC45
:1024F000FB1C1B785BB2181CBD4602B080BDC046F9
:102500002C0B00200620000080B586B000AF78605C
:102510003B1C0F33FF221A70114B9B687B617B6958
:1025200009333B613A697B68101C191CFEF712FEE7
:10253000031C3B610B4A7B69101C191C0422FFF72A
:1025400067FC084A3B1C0F33101C191CFFF734FCB6
:102550003B1C0F331B785BB2181CBD4606B080BD18
:102560002C0B00200820000080B588B000AFF86078
:10257000B9607A603B603B1C1733FF221A701C4B1A
:102580009B68FB61FB690933BB61BA69FB68101C7E
:10259000191CFEF7DFFD031CBB61BA69BB68101C88
:1025A000191CFEF7D7FD031CBB61BA697B68101CC0
:1025B000191CFEF7CFFD031CBB610E4AFB69101C02
:1025C000191C0C22FFF724FC0A4A3B1C1733101C71
:1025D000191CFFF7F1FB3B68181C00210022FFF7D4
:1025E00001FC3B1C17331B78181CBD4608B080BD8E
:1025F0002C0B00200102000080B588B000AFF8600D
:10260000B9607A603B6001235B427B61214B9B6830
:10261000FB61FB690A33BB61BA69FB68101C191CBA
:10262000FEF798FD031CBB61BB69181C0C21FEF76B
:1026300091FD031CBB61BA69BB68101C191CFEF735
:1026400089FD031CBB61BA697B68101C191CFEF76D
:1026500081FD031CBB61FB69191C1A313A68BB6818
:10266000081C111C1A1C03F03FFEBB689BB2FA69E0
:102670009020111C1022FFF74BFC074A3B1C14331F
:10268000101C191CFFF798FB7B69181CBD4608B08D
:1026900080BDC0462C0B00200202000080B582B035
:1026A00000AF78607B68062006210022FFF7A4FFB8
:1026B000031CDBB2181CBD4602B080BD80B582B0E1
:1026C00000AF78607B68062006210022FFF74CFFF0
:1026D000031CDBB2181CBD4602B080BD80B586B0BD
:1026E00000AFF860B9607A603B1C173300221A70A3
:1026F0003B1C143300221A807B683B6119E03B1CB1
:1027000014331A88F9683B69081C2021FFF774FF0D
:10271000021C3B1C17331A703B1C14333A1C143236
:10272000128820321A80BB68203BBB603B69203393
:102730003B613B1C17331B78002B02D1BB681F2B5E
:10274000DDD83B1C17331B78002B03D03B1C173301
:102750001B7811E0BB68002B0BD03B1C14331A888C
:10276000F868B9683B69FFF747FF021C3B1C173349
:102770001A703B1C17331B78181CBD4606B080BD71
:1027800080B586B000AF7860114B9B687B61114AC1
:102790007B69101C191C0022FFF73AFB0D4A3B1CF9
:1027A0000C33101C191CFFF707FB3B1C0C33DA78A9
:1027B0007B681A707B6801333A1C0C3212791A70EC
:1027C0003B1C0C331B78181CBD4606B080BDC046B0
:1027D0002C0B00200702000080B586B000AF7860A7
:1027E0003960154B9B687B617B6909333B613A69B2
:1027F0007B68101C191CFEF7ADFC031C3B613A6999
:102800003B68101C191CFEF7A5FC031C3B610B4A1E
:102810007B69101C191C0822FFF7FAFA074A3B1CB7
:102820000E33101C191CFFF7C7FA3B1C0E331B8814
:10283000181CBD4606B080BD2C0B00200302000012
:1028400080B582B000AF7860164BDB6A002B0DD0EC
:1028500003F0F8FC031C134AD26A1A60114B0022E1
:10286000DA6203F0EFFC031C1B6816E07B68181C9F
:10287000FFF766FA031C002B02D001235B420CE039
:10288000084B1B6B9BB2002BDED0064B1B6B9BB225
:10289000013B9AB2034B1A860023181CBD4602B0B6
:1028A00080BDC0462C0B002080B588B000AFF8601A
:1028B000B9607A6001235B427B611D4B9B68FB61C1
:1028C000FB690933BB61FB68BA69101C191CFEF770
:1028D00041FC031CBB61BB68BA69101C191CFEF7E4
:1028E00039FC031CBB617B68BA69101C191CFEF71C
:1028F00031FC031CBB610F4AFB69101C191C0C2224
:10290000FFF786FA0B4A3B1C1433101C191CFFF707
:1029100053FA03F097FC031C7A691A607B69181C50
:102920000021FFF791F97B69181CBD4608B080BDF6
:102930002C0B00200110000080B586B000AF78603D
:1029400001235B42FB60154B9B687B617B6909330C
:102950003B617B683A69101C191CFEF7FBFB031CEA
:102960003B610F4A7B69101C191C0422FFF750FAC7
:102970000B4A3B1C0C33101C191CFFF71DFA03F00B
:1029800061FC031CFA681A607B68181C0121FFF7C0
:102990005BF9FB68181CBD4606B080BD2C0B0020FF
:1029A0000B10000080B58EB000AFF860B9607A609F
:1029B00001235B427B63254B9B683B633B6B093385
:1029C000FB62FB68FA6A101C191CFEF7C3FB031CB0
:1029D000FB621F4A3B6B101C191C0422FFF718FAFC
:1029E0001B4A3B1C1433101C191CFFF7E5F9BA688D
:1029F0003B1C14330833101C191C082203F074FC10
:102A00007B6808221A6003F01DFC031C3A1C143278
:102A100052681A6003F016FC031C1B687B637B6B17
:102A2000002B08DB7B6B072B05DC7B6B181C002164
:102A3000FFF70AF904E0FB68181C0121FFF704F90D
:102A40007B6B181CBD460EB080BDC0462C0B002011
:102A50000510000090B589B000AFF860B9607A60E9
:102A600001235B423B61244B9B68BB61BB6909331B
:102A7000FB6108237B61FB68FA69101C191CFEF7D7
:102A800069FB031CFB61FB69181C0821FEF762FB54
:102A9000031CFB617B69FA69101C191CFEF75AFBC9
:102AA000031CFB6100240AE0FB695A1CFA6122B294
:102AB000B9688A1812781A70A3B201339CB222B294
:102AC0007B699A42F0DB0D4ABB69101C191C142269
:102AD000FFF79EF9094A3B1C1033101C191CFFF725
:102AE0006BF903F0AFFB031C3A691A603B69181CD1
:102AF000BD4609B090BDC0462C0B0020021000005E
:102B000080B586B000AF7860396001235B42FB601E
:102B1000164B9B687B617B6909333B617B683A6933
:102B2000101C191CFEF716FB031C3B613B683A693D
:102B3000101C191CFEF70EFB031C3B610C4A7B6941
:102B4000101C191C0822FFF763F9094A3B1C0C33BF
:102B5000101C191CFFF730F903F074FB031CFA6812
:102B60001A60FB68181CBD4606B080BD2C0B002007
:102B70000610000090B589B000AFF8607A603B1C89
:102B80000A330A1C1A8003F05DFB031C0122524227
:102B90001A603B1C0A331B88E62B04D903F052FB56
:102BA000031C1B684DE0294B9B68BB61BB69093363
:102BB000FB61FB69181C0821FEF7CCFA031CFB61C2
:102BC0003B1C0A331B88FA69101C191CFEF7C2FA59
:102BD000031CFB6100240AE0FB695A1CFA6122B263
:102BE000F9688A1812781A70A3B201339CB222B223
:102BF0003B1C0A331B889A42EEDB3B1C0A331B88C2
:102C0000DBB20833DBB21249BA69081C111C1A1C6A
:102C1000FFF7FEF80E4A3B1C1033101C191CFFF77F
:102C2000CBF803F00FFB031C3A1C103212681A6039
:102C30003B1C10335A687B681A6003F003FB031CCB
:102C40001B68181CBD4609B090BDC0462C0B002067
:102C50001010000090B589B000AFF860B9607A60DC
:102C600001235B423B61244B9B68BB61BB69093319
:102C7000FB6108237B61FB68FA69101C191CFEF7D5
:102C800069FA031CFB61FB69181C0821FEF762FA54
:102C9000031CFB617B69FA69101C191CFEF75AFAC8
:102CA000031CFB6100240AE0FB695A1CFA6122B292
:102CB000B9688A1812781A70A3B201339CB222B292
:102CC0007B699A42F0DB0D4ABB69101C191C142267
:102CD000FFF79EF8094A3B1C1033101C191CFFF724
:102CE0006BF803F0AFFA031C3A691A603B69181CD1
:102CF000BD4609B090BDC0462C0B00200710000057
:102D000080B58CB000AFF860B9607A603B60BB6B97
:102D1000002B02D10123FB6201E00023FB62624B26
:102D20009B68BB62BB6A09337B62FB687A6A101CD2
:102D3000191CFEF70FFA031C7B627B6A181C142116
:102D4000FEF708FA031C7B627B6A181C1421FEF74D
:102D500001FA031C7B627B6A181C1421FEF7FAF946
:102D6000031C7B627B6A181C1421FEF7F3F9031C19
:102D70007B627A6AFB6A101C191CFEF7EBF9031CD4
:102D80007B62BB68002B02D0BB681B6800E000239D
:102D90007A6A101C191CFEF7DDF9031C7B627B6844
:102DA000002B02D07B681B6800E000237A6A101CAD
:102DB000191CFEF7CFF9031C7B623B68002B02D085
:102DC0003B681B6800E000237A6A101C191CFEF7A0
:102DD000C1F9031C7B62BB6B002B1DD0BB6B1B6856
:102DE000002B07D1BB6B5A68304B9A4202DCBB6B9D
:102DF0002F4A5A60BB6B1B687A6A101C191CFEF7BD
:102E0000A9F9031C7B62BB6B5B687A6A101C191CF6
:102E1000FEF7A0F9031C7B62264ABB6A101C191C32
:102E20002C22FEF7F5FF234A3B1C1433101C191CFF
:102E3000FEF7C2FF3B1C14331B68002B27DBBB686B
:102E4000002B08D0BA683B1C14330433101C191C27
:102E5000042203F049FA7B68002B08D07A683B1CF7
:102E600014330833101C191C042203F03DFA3B688C
:102E7000002B08D03A683B1C14330C33101C191C6F
:102E8000042203F031FA3B1C14331B6808E003F002
:102E9000D9F9031C3A1C143212681A6001235B42F0
:102EA000181CBD460CB080BD2C0B00208713000001
:102EB000881300000810000090B589B000AFF860DA
:102EC000B9607A603B602F4B9B68BB61BB6909337B
:102ED000FB61FB68FA69101C191CFEF73BF9031C27
:102EE000FB61BB68FA69101C191CFEF733F9031C5F
:102EF000FB617B68FA69101C191CFEF72BF9031C97
:102F0000FB61FB69181C0821FEF724F9031CFB6117
:102F1000FA693B6B101C191CFEF71CF9031CFB61C2
:102F200000240AE0FB695A1CFA6122B239688A1847
:102F300012781A70A3B201339CB222B23B6B9A4250
:102F4000F0D33B6BDBB21433DBB20F49BA69081C18
:102F5000111C1A1CFEF75CFF0B4A3B1C1433101C9F
:102F6000191CFEF729FF7B69002B01DB002305E01C
:102F700003F068F9031C7A691A607B69181CBD4666
:102F800009B090BD2C0B00200910000080B588B05E
:102F900000AFF860B9607A603B60294B9B68FB61C9
:102FA000FB690933BB61FB68BA69101C191CFEF789
:102FB000D1F8031CBB61BB68BA69101C191CFEF771
:102FC000C9F8031CBB617B68BA69101C191CFEF7A9
:102FD000C1F8031CBB611B4AFB69101C191C0C22A5
:102FE000FEF716FF174A3B1C1033101C191CFEF786
:102FF000E3FE3B1C10331B79DBB25BB2002B0FDB13
:10300000BB6A04221A603A683B1C1033111C1A1C5C
:103010000423081C111C1A1C03F066F900230AE0A3
:1030200003F010F9031C3A1C103212791A6003F0F5
:1030300009F9031C1B68181CBD4608B080BDC046BA
:103040002C0B00200A10000080B58AB000AFF86099
:10305000B9607A603B60244B9B687B627B6A093372
:103060003B62FB683A6A101C191CFEF773F8031CDC
:103070003B627B683A6A101C191CFEF76BF8031C54
:103080003B623B683A6A101C191CFEF763F8031C8C
:103090003B62BB6B9AB27B6A101C191C0C22FEF7B8
:1030A000B7FEBB6B9AB23B1C1433101C191CFEF705
:1030B00083FE3B1C14335B68002B07DDB9683A6B59
:1030C0007B6B081C111C1A1CFEF78CFE03F0BAF86F
:1030D000031C3A1C143252681A603B1C14335B68A0
:1030E000181CBD460AB080BD2C0B002090B589B0DD
:1030F00004AFF860B9607A603B60F868B9687A68D4
:103100003B680024009400240194044C0294FFF7CF
:103110009BFF031C181CBD4605B090BD04100000A9
:1031200090B589B004AFF860B9607A603B60F86828
:10313000B9687A683B683C6A00947C6A0194044CE4
:103140000294FFF781FF031C181CBD4605B090BD1B
:103150000D100000B0B590B002AFF860B9607A60B1
:103160003B60FB68181CFFF76BFB031CBB62BB6A70
:10317000002B01D0BB6AABE0574B9B6B5A1C564BE4
:103180009A63554B9B687B627B6A0A333B623B6D5B
:10319000812B11D0832B00D01AE07B680833FB62AF
:1031A0003B1C363308221A703B1C373318221A7026
:1031B0007B6A22333B630BE00023FB640023BB6488
:1031C0003B1C373310221A707B6A1A333B63C046AC
:1031D000FB683A6A101C191CFDF7BCFF031C3B621C
:1031E0003B1C37331B78043B3A6A101C191CFDF753
:1031F000B1FF031C3B627B683A6A101C191CFDF787
:10320000A9FF031C3B623B683A6A101C191CFDF7BE
:10321000A1FF031C3B623B6D832B11D13A6AFB6A11
:10322000101C191CFDF796FF031C3B623B1C363338
:103230001B783A6A101C191CFDF78CFF031C3B62BB
:1032400000240AE03B6B5A1C3A6322B2B9688A1820
:1032500012781A70A3B201339CB222B27B689A42F0
:10326000F0DB3B6D832B10D100240AE03B6B5A1C32
:103270003A6322B2B96C8A1812781A70A3B2013379
:103280009CB222B2FB6C9A42F0DB3B6DD8B23B1C85
:1032900037331B789AB27B689BB2F96C8CB2796A2F
:1032A000BD6C00950194FEF7E3FD3B6D832B07D1C8
:1032B0000A4A3B1C1433101C191CFEF77DFD06E066
:1032C000074A3B1C1433101C191CFEF775FD7B6864
:1032D000181CBD460EB0B0BD2C0B00200F10000016
:1032E0000310000090B589B004AFF860B9607A604F
:1032F0003B60F868B9687A683B6800240094002451
:10330000019481240294FFF725FF031C181CBD467D
:1033100005B090BDB0B588B004AFF860B9607A6010
:103320003B607C6AF868B9687A683B683D6A0095DA
:10333000019483240294FFF70DFF031C181CBD4663
:1033400004B0B0BD90B587B000AF3960BB1D011CA3
:1033500019803B1D1A803B1D1B88202B02D901239D
:103360005B4244E0244B9B683B613B6909337B61D2
:10337000BB1D1B887A69101C191CFDF7EBFE031C92
:103380007B617B69181C0821FDF7E4FE031C7B614F
:103390003B1D1B887A69101C191CFDF7DBFE031C02
:1033A0007B6100240AE07B695A1C7A6122B2396889
:1033B0008A1812781A70A3B201339CB222B23B1D54
:1033C0001B889A42EFDB3B1D1B88DBB20C33DBB260
:1033D0000A493A69081C111C1A1CFEF719FD074A14
:1033E0003B1C0C33101C191CFEF7E6FCFB68181C78
:1033F000BD4607B090BDC0462C0B00201110000048
:1034000080B584B000AF021CBB1D1A800F4B9B68B7
:10341000FB60FB680933BB60BB685A1CBA60BA1D0D
:103420001288511E8A41D2B21A708023DA01FB68D9
:10343000101C191C0122FEF7EBFC8023DB01181C79
:103440000021FEF7B9FCBD4604B080BD2C0B002066
:1034500080B584B000AFF860B9607A603B600F4B14
:10346000BA68DA600D4B7A681A610C4B3A685A6197
:103470000A4BBA69DA61094BFA691A62074B3A6A70
:103480005A62064B7A6A9A62044BFA689A61034A56
:1034900040230121D154BD4604B080BD2C0B002037
:1034A00080B582B000AF7860054B01225A80044B92
:1034B0007A685A60FEF7A0FBBD4602B080BDC046E8
:1034C0002C0B002080B584B000AF021CBB1D1A80FD
:1034D0002D4B00229A632C4B0022DA632A4B0022E8
:1034E0001A80294B00221A86274B00225A86264B27
:1034F00000229A86244B0022DA86234B0022DA62CD
:10350000214B00225A80204B00225A601E4B1F4A3A
:103510009A601F4B181CFDF7A9FB1B4BDB699847F2
:10352000031CFB60184B9B6A01209847FB68002B2B
:1035300007D0C046144BDB699847031C002BF9D118
:103540000DE0C046104BDB699847031C002BF9D0F7
:10355000C0460D4BDB699847031C002BF9D1BB1DFE
:103560001B88181CFFF74CFF074B9B68094A101C6F
:10357000191C0022FEF74CFC064B181C0021FEF71C
:103580001BFCBD4604B080BD2C0B0020640A00204B
:10359000A13400000B40000080B500AF0A4B9B6ACD
:1035A00000209847C046084BDB699847031C002B56
:1035B000F9D0054B9B68002B02D0034B00229A6088
:1035C000FDF742FBBD4680BD2C0B002090B58BB0B3
:1035D00000AFF860B9607A603B603B1C1433002296
:1035E0001A703B1C143300225A703B1C1433002207
:1035F0009A703B1C14330022DA703B1C14330022F7
:103600001A713B1C143300225A7101235B42FB6187
:103610004F4B9B683B623B6A09337B627B6A181C99
:103620001C21FDF797FD031C7B627B687A6A101CE6
:10363000191CFDF78FFD031C7B627A6AFB68101C66
:10364000191CFDF787FD031C7B627B6810337A6AC7
:10365000101C191CFDF77EFD031C7B62FB6B7A6A54
:10366000101C191CFDF776FD031C7B627B6A181C7D
:103670000021FDF795FD031C7B623B68002B10D0F9
:1036800000240AE07B6A5A1C7A6222B239688A18DE
:1036900012781A70A3B201339CB223B2052BF1DD6C
:1036A00010E000240BE07B6A5A1C7A6222B2391CBB
:1036B00014318A1812781A70A3B201339CB223B263
:1036C000052BF0DD00240AE07B6A5A1C7A6222B2E4
:1036D000B9688A1812781A70A3B201339CB222B268
:1036E0007B689A42F0DBFB6B002B13D0BB6B002B8B
:1036F00010D000240AE07B6A5A1C7A6222B2B96BAD
:103700008A1812781A70A3B201339CB222B2FB6BF2
:103710009A42F0DB7B68DAB2FB6BDBB2D318DBB228
:103720001C33DBB23A6A0120111C1A1CFEF770FB35
:103730003B1C1C330120191CFEF73EFB02F082FDEE
:10374000031CFA691A60FB69181CBD460BB090BDDA
:103750002C0B002080B582B000AF01235B423B60A0
:103760000B4B9B687B607B680220191C0022FEF7D4
:103770004FFB3B1C0220191CFEF71EFB02F062FDF2
:10378000031C3A681A603B68181CBD4602B080BD35
:103790002C0B002080B588B000AFF860B9607A606B
:1037A00001235B427B61174B9B68FB61FB6909331B
:1037B000BB61BA69FB68101C191CFDF7CBFC031C2C
:1037C000BB61BA69BB68101C191CFDF7C3FC031C64
:1037D000BB61BA697B68101C191CFDF7BBFC031C9C
:1037E000BB61FB690420191C0C22FEF711FB3B1C7A
:1037F00014330420191CFEF7DFFA7B69181CBD4640
:1038000008B080BD2C0B002090B58DB000AFF860E3
:10381000B9607A603B600023BB623B1C103300221E
:103820001A703B1C103300225A703B1C10330022CC
:103830009A703B1C10330022DA703B1C10330022BC
:103840001A713B1C103300225A71C54B9B683B62B6
:103850003B6A09337B627A6AFB68101C191CFDF70E
:1038600079FC031C7B62FB68012B5FD003D3032B25
:1038700000D991E1F4E07B6A181C1421FDF76AFC81
:10388000031C7B627A6A7B68101C191CFDF762FCC2
:10389000031C7B627B6A181C0021FDF781FC031C62
:1038A0007B623B68002B10D000240AE07B6A5A1C24
:1038B0007A6222B239688A1812781A70A3B2013378
:1038C0009CB223B2052BF1DD10E000240BE07B6AF3
:1038D0005A1C7A6222B2391C10318A1812781A7076
:1038E000A3B201339CB223B2052BF0DD7A6A3B6CA4
:1038F000101C191CFDF72EFC031C7B6200240AE03F
:103900007B6A5A1C7A6222B2B9688A1812781A70D5
:10391000A3B201339CB222B27B689A42F0D37B6897
:103920009AB23B1C2E3318321A8035E17B6A181C80
:103930002021FDF70FFC031C7B627A6A7B68101C58
:10394000191CFDF707FC031C7B627B6A181C002115
:10395000FDF726FC031C7B623B68002B10D0002483
:103960000AE07B6A5A1C7A6222B239688A18127895
:103970001A70A3B201339CB223B2052BF1DD10E023
:1039800000240BE07B6A5A1C7A6222B2391C103187
:103990008A1812781A70A3B201339CB223B2052B95
:1039A000F0DD7A6A3B6C101C191CFDF7D3FB031C7D
:1039B0007B627B680C337A6A101C191CFDF7CAFB0A
:1039C000031C7B627A6A7B6C101C191CFDF7C2FB1E
:1039D000031C7B627A6ABB6C101C191CFDF7BAFBD6
:1039E000031C7B6200240AE07B6A5A1C7A6222B2C2
:1039F000B9688A1812781A70A3B201339CB222B245
:103A00007B689A42F0D30023BB6219E0BB6A7A6CF0
:103A100053433A6DD318FB6100240AE07B6A5A1CB9
:103A20007A6222B2F9698A1812781A70A3B2013345
:103A30009CB222B27B6C9A42F0D3BB6A0133BB6268
:103A4000BB6A032BE2DD7B6C9BB29B009AB27B6866
:103A50009BB2D3189AB23B1C2E3324321A809BE0BF
:103A60007B6A181C2821FDF775FB031C7B627A6AB0
:103A70007B68101C191CFDF76DFB031C7B627B6AC5
:103A8000181C0021FDF78CFB031C7B623B68002B9C
:103A900010D000240AE07B6A5A1C7A6222B239688C
:103AA0008A1812781A70A3B201339CB223B2052B84
:103AB000F1DD10E000240BE07B6A5A1C7A6222B22E
:103AC000391C10318A1812781A70A3B201339CB2D3
:103AD00023B2052BF0DD7A6A3B6C101C191CFDF734
:103AE00039FB031C7B627A6A7B6C101C191CFDF786
:103AF00031FB031C7B627A6ABB6C101C191CFDF73E
:103B000029FB031C7B627A6AFB6C101C191CFDF7F5
:103B100021FB031C7B627B6808337A6A101C191C2A
:103B2000FDF718FB031C7B627A6A7B6D101C191C65
:103B3000FDF710FB031C7B6200240AE07B6A5A1C21
:103B40007A6222B2B9688A1812781A70A3B2013365
:103B50009CB222B27B689A42F0D300240DE0C046AA
:103B60002C0B00207B6A5A1C7A6222B2396D8A18AB
:103B700012781A70A3B201339CB222B27B6D9A42C2
:103B8000F0D37B689AB27B6D9BB2D3189AB23B1C80
:103B90002E332C321A80C0463B1C2E331B88DBB2DE
:103BA0003A6A0520111C1A1CFEF732F93B1C183327
:103BB0000520191CFEF700F9BB69181CBD460DB0A5
:103BC00090BDC04680B586B000AF7860104B9B6852
:103BD0007B617B6909333B613A697B68101C191C66
:103BE000FDF7B8FA031C3B6101235B42FB607B6974
:103BF0000620191C0422FEF70BF93B1C0C3306208F
:103C0000191CFEF7D9F8FB68181CBD4606B080BD2C
:103C10002C0B002080B584B000AF786039600F4B6A
:103C20009B68FB60FB680933BB60BA687B68101C4B
:103C3000191CFDF78FFA031CBB60FB680720191CD9
:103C40000422FEF7E5F83B680720191CFEF7B4F8DC
:103C50000023181CBD4604B080BDC0462C0B0020BC
:103C600090B589B000AFF860B9607A603B60374BBF
:103C70009B68BB61BB690933FB61FB69181C24218C
:103C8000FDF768FA031CFB61FA69FB68101C191C3C
:103C9000FDF760FA031CFB61FA69BB68101C191C74
:103CA000FDF758FA031CFB61FA697B68101C191CAC
:103CB000FDF750FA031CFB61FA693B68101C191CE4
:103CC000FDF748FA031CFB61FA693B6B101C191CD9
:103CD000FDF740FA031CFB617B6BFA69101C191C91
:103CE000FDF738FA031CFB61FA69BB6B101C191C49
:103CF000FDF730FA031CFB61FA69FB6B101C191C01
:103D0000FDF728FA031CFB6100240AE0FB695A1C3A
:103D1000FA6122B2396C8A1812781A70A3B2013390
:103D20009CB2A3B23F2BF1D9BB690320191C6422BA
:103D3000FEF76EF83B1C14330320191CFEF73CF809
:103D40007B69181CBD4609B090BDC0462C0B0020F5
:103D500080B586B000AF78607A681F4B1A401E4B62
:103D60009A4213D11D4A40230021D1547A681A4B3C
:103D70009A4201D100232BE07A68194B13407B60F3
:103D80007B688022120213437B6003E0134A4023C6
:103D90000121D15401235B42FB60104B9B687B6186
:103DA0007B6909333B613A697B68101C191CFDF77C
:103DB000D1F9031C3B617B690820191C0422FEF722
:103DC00027F83B1C0C330820191CFDF7F5FFFB6896
:103DD000181CBD4606B080BD088000002C0B0020DA
:103DE000F77FFFFF80B582B000AF01235B423B60ED
:103DF000094B9B687B607B680920191C0022FEF739
:103E000007F83B1C0920191CFDF7D6FF3B68181C5E
:103E1000BD4602B080BDC0462C0B002080B586B0E8
:103E200000AF786001235B42FB60114B9B687B61B4
:103E30007B6909333B613A697B68101C191CFDF7EB
:103E400089F9031C3B6101235B42FB607B690A200B
:103E5000191C0422FDF7DCFF3B1C0C330A20191C43
:103E6000FDF7AAFFFB68181CBD4606B080BDC04622
:103E70002C0B002080B582B000AF01235B423B6079
:103E8000094B9B687B607B680B20191C0022FDF7A7
:103E9000BFFF3B1C0B20191CFDF78EFF3B68181C55
:103EA000BD4602B080BDC0462C0B002090B587B047
:103EB00000AF786001235B42FB601B4B9B683B615A
:103EC0003B6909337B617B68002B01D1FB6827E0EC
:103ED0007B6854221A707B68013354221A707B6805
:103EE000023354221A7000240AE07B695A1C7A615A
:103EF00022B279688A1812781A70A3B201339CB280
:103F000023B2022BF1DD3B690C20191C0322FDF7C3
:103F10007FFF3B1C0C330C20191CFDF74DFFFB6889
:103F2000181CBD4607B090BD2C0B002080B58CB08E
:103F300006AF5A4B181C02F00BF8031C7B617B691F
:103F4000002B01D07B69A4E0554B0D2043210022BA
:103F5000FEF70AFB031C7B617B69002B01D07B69A8
:103F600097E0504BBB604E4B1B787B604C4B1B78F3
:103F7000DA1C4B4BD318FB60FA68484B101C191C19
:103F800001F0D0FF464B1B780133454AD35C102B20
:103F900007D9FB681A1C1032404B101C191C01F089
:103FA000C1FFFB681F331B78002B0CD0FB681B780C
:103FB0001F2B05D11F233B61FB680133FB6008E029
:103FC00020233B6105E0FB681B783B61FB68013304
:103FD000FB60334B1B780233314AD35C012B23D077
:103FE00002DC002B03D053E0032B51DC39E02C4BD7
:103FF0001B7802332A4AD35C191CBA687B680120FB
:1040000000900020019000200290002003900020EA
:10401000049000200590081C111C1A1C0023FFF7B7
:10402000F3FB031C7B6133E01D4B1B7802331C4AFE
:10403000D35C191CBA687B68012000903869019034
:104040000020029000200390F86804900020059062
:10405000081C111C1A1C0023FFF7D6FB031C7B61F4
:1040600016E0BA687B6801210091182101911E2198
:10407000029102210391F9680491396905910320A5
:10408000111C1A1C0023FFF7BFFB031C7B61C046F9
:104090007B69181CBD4606B080BDC046700B002071
:1040A000E80A0020E90A002080B584B000AF7860FB
:1040B00039603B1C0E3300221A8012E03B1C0E3389
:1040C0001B887A68D3183A1C0E32128839688A180D
:1040D00012781A703B1C0E331A883B1C0E330132C7
:1040E0001A803B1C0E331B880F2BE7D93B1C0E3369
:1040F00001221A80CEE13B1C0E331B881B01043BBE
:104100007A68D3181A783B1C0C331A803B1C0E3388
:104110001B881B017A68D3183A1C0E3212881201D0
:10412000033A79688A181278D849895C3A1C0E32A9
:104130001288013A12017868821812784A40D1B286
:104140003A1C0E321288D248825C4A40D2B21A70AF
:104150003B1C0E331B881B0101337A68D3183A1CB1
:104160000E3212881201023A79688A181278C74909
:10417000895C3A1C0E321288013A120101327868C9
:10418000821812784A40D2B21A703B1C0E331B8838
:104190001B0102337A68D3183A1C0E3212881201BE
:1041A000013A79688A181278B849895C3A1C0E324B
:1041B0001288013A120102327868821812784A4055
:1041C000D2B21A703B1C0E331B881B0103337A6872
:1041D000D3183A1C0C321288AC49895C3A1C0E3256
:1041E0001288013A120103327868821812784A4024
:1041F000D2B21A703B1C0E331B881B0104337A6841
:10420000D3183A1C0E321288013A1201043279682E
:104210008A1811783A1C0E321288120178688218B6
:1042200012784A40D2B21A703B1C0E331B881B0115
:1042300005337A68D3183A1C0E321288013A1201FB
:10424000053279688A1811783A1C0E3212881201E8
:1042500001327868821812784A40D2B21A703B1C38
:104260000E331B881B0106337A68D3183A1C0E32B2
:104270001288013A1201063279688A1811783A1CBC
:104280000E321288120102327868821812784A407F
:10429000D2B21A703B1C0E331B881B0107337A689D
:1042A000D3183A1C0E321288013A1201073279688B
:1042B0008A1811783A1C0E3212881201033278687B
:1042C000821812784A40D2B21A703B1C0E331B88F7
:1042D0001B0108337A68D3183A1C0E321288013A4F
:1042E0001201083279688A1811783A1C0E32128845
:1042F000120104327868821812784A40D2B21A70D9
:104300003B1C0E331B881B0109337A68D3183A1CF7
:104310000E321288013A1201093279688A1811782E
:104320003A1C0E321288120105327868821812780F
:104330004A40D2B21A703B1C0E331B881B010A3351
:104340007A68D3183A1C0E321288013A12010A32E6
:1043500079688A1811783A1C0E32128812010632D6
:104360007868821812784A40D2B21A703B1C0E3319
:104370001B881B010B337A68D3183A1C0E32128843
:10438000013A12010B3279688A1811783A1C0E3200
:104390001288120107327868821812784A40D2B225
:1043A0001A703B1C0E331B881B010C337A68D31820
:1043B0003A1C0E321288013A12010C3279688A18BE
:1043C00011783A1C0E32128812010832786882186D
:1043D00012784A40D2B21A703B1C0E331B881B0164
:1043E0000D337A68D3183A1C0E321288013A120142
:1043F0000D3279688A1811783A1C0E32128812012F
:1044000009327868821812784A40D2B21A703B1C7E
:104410000E331B881B010E337A68D3183A1C0E32F8
:104420001288013A12010E3279688A1811783A1C02
:104430000E32128812010A327868821812784A40C5
:10444000D2B21A703B1C0E331B881B010F337A68E3
:10445000D3183A1C0E321288013A12010F327968D1
:104460008A1811783A1C0E32128812010B327868C1
:10447000821812784A40D2B21A703B1C0E331A8846
:104480003B1C0E3301321A8004E0C04674D6000093
:1044900074D800003B1C0E331B880A2B00D82AE678
:1044A000BD4604B080BDC04680B582B000AF021CDE
:1044B000FB1D1A70FB1D1B785BB2002B0ADAFA1D7C
:1044C000FB1D1B78DB181370FB1D1B781B22534050
:1044D000DBB203E0FB1D1B78DB18DBB2181CBD460A
:1044E00002B080BD90B585B000AF786039603B1CEC
:1044F0000F3300221A70DAE37B681A783B1C0F3303
:104500001B781B013968CB181B785340DBB2FE4A7D
:10451000D25C7B681A707B6804337A680432117845
:104520003A1C0F321278120104323868821812785D
:104530004A40D2B2F4498A5C1A707B6808337A68C0
:10454000083211783A1C0F3212781201083238689A
:10455000821812784A40D2B2EB498A5C1A707B68A2
:104560000C337A680C3211783A1C0F32127812012F
:104570000C323868821812784A40D2B2E2498A5C1A
:104580001A707B68013319783B1C0F331B781B01B1
:1045900001333A68D3181A783B1C0E334A401A701C
:1045A0007B6801337A68053211783A1C0F32127831
:1045B000120105323868821812784A40D2B2D249C4
:1045C0008A5C1A707B6805337A68093211783A1C64
:1045D0000F321278120109323868821812784A4074
:1045E000D2B2C9498A5C1A707B6809337A680D3285
:1045F00011783A1C0F32127812010D323868821885
:1046000012784A40D2B2C0498A5C1A707B680D3376
:104610003A1C0E321278BC498A5C1A707B680233ED
:1046200019783B1C0F331B781B0102333A68D318EF
:104630001A783B1C0E334A401A707B68063319788F
:104640003B1C0F331B781B0106333A68D3181A78CA
:104650003B1C0D334A401A707B6802337A680A3279
:1046600011783A1C0F32127812010A323868821817
:1046700012784A40D2B2A4498A5C1A707B68063329
:104680007A680E3211783A1C0F32127812010E320B
:104690003868821812784A40D2B29B498A5C1A70F4
:1046A0007B680A333A1C0E32127897498A5C1A707A
:1046B0007B680E333A1C0D32127893498A5C1A706B
:1046C0007B680F3319783B1C0F331B781B010F33AA
:1046D0003A68D3181A783B1C0E334A401A707B682C
:1046E0000F337A680B3211783A1C0F3212781201AC
:1046F0000B323868821812784A40D2B282498A5CFA
:104700001A707B680B337A68073211783A1C0F32C3
:104710001278120107323868821812784A40D2B2F1
:1047200079498A5C1A707B6807337A68033211789A
:104730003A1C0F321278120103323868821812784C
:104740004A40D2B270498A5C1A707B6803333A1CC3
:104750000E3212786C498A5C1A707B681A787B6812
:1047600001331B785340DAB27B6802331B78534025
:10477000D9B27B6803331A783B1C0E334A401A7057
:104780003B1C0D337A6812781A707B6819787B6845
:1047900001331A783B1C0C334A401A703C1C0C3411
:1047A0003B1C0C331B78181CFFF77EFE031C237088
:1047B0007B681A783B1C0C331B785340DAB23B1CE5
:1047C0000E331B785340DAB27B681A707B68013372
:1047D00019787B6802331A783B1C0C334A401A70F4
:1047E0003C1C0C343B1C0C331B78181CFFF75CFE84
:1047F000031C23707B6801337A68013211783A1CFC
:104800000C3212784A40D1B23A1C0E3212784A4029
:10481000D2B21A707B68023319787B6803331A7836
:104820003B1C0C334A401A703C1C0C343B1C0C33B0
:104830001B78181CFFF738FE031C23707B680233BB
:104840007A68023211783A1C0C3212784A40D1B29E
:104850003A1C0E3212784A40D2B21A707B68033387
:1048600019783B1C0C333A1C0D3212784A401A70EE
:104870003C1C0C343B1C0C331B78181CFFF714FE3B
:10488000031C23707B6803337A68033211783A1C67
:104890000C3212784A40D1B23A1C0E3212784A4099
:1048A000D2B21A707B6804331A787B6805331B78A0
:1048B0005340DAB27B6806331B785340D9B27B6829
:1048C00007331A783B1C0E334A401A703B1C0D33D9
:1048D0007A6812791A707B68043319787B6805331B
:1048E0001A783B1C0C334A401A703C1C0C343B1C9D
:1048F0000C331B78181CFFF7D7FD031C23707B6853
:1049000004337A68043201E074D6000011783A1C4E
:104910000C3212784A40D1B23A1C0E3212784A4018
:10492000D2B21A707B68053319787B6806331A781F
:104930003B1C0C334A401A703C1C0C343B1C0C339F
:104940001B78181CFFF7B0FD031C23707B68053330
:104950007A68053211783A1C0C3212784A40D1B28A
:104960003A1C0E3212784A40D2B21A707B68063373
:1049700019787B6807331A783B1C0C334A401A704D
:104980003C1C0C343B1C0C331B78181CFFF78CFDB3
:10499000031C23707B6806337A68063211783A1C50
:1049A0000C3212784A40D1B23A1C0E3212784A4088
:1049B000D2B21A707B68073319783B1C0C333A1C4F
:1049C0000D3212784A401A703C1C0C343B1C0C33DC
:1049D0001B78181CFFF768FD031C23707B680733E6
:1049E0007A68073211783A1C0C3212784A40D1B2F8
:1049F0003A1C0E3212784A40D2B21A707B680833E1
:104A00001A787B6809331B785340DAB27B680A3323
:104A10001B785340D9B27B680B331A783B1C0E339A
:104A20004A401A703B1C0D337A68127A1A707B6800
:104A3000083319787B6809331A783B1C0C334A40D9
:104A40001A703C1C0C343B1C0C331B78181CFFF7F1
:104A50002BFD031C23707B6808337A6808321178B9
:104A60003A1C0C3212784A40D1B23A1C0E321278FB
:104A70004A40D2B21A707B68093319787B680A33CE
:104A80001A783B1C0C334A401A703C1C0C343B1CFB
:104A90000C331B78181CFFF707FD031C23707B6881
:104AA00009337A68093211783A1C0C3212784A407C
:104AB000D1B23A1C0E3212784A40D2B21A707B68D8
:104AC0000A3319787B680B331A783B1C0C334A4045
:104AD0001A703C1C0C343B1C0C331B78181CFFF761
:104AE000E3FC031C23707B680A337A680A3211786E
:104AF0003A1C0C3212784A40D1B23A1C0E3212786B
:104B00004A40D2B21A707B680B3319783B1C0C33C5
:104B10003A1C0D3212784A401A703C1C0C343B1C73
:104B20000C331B78181CFFF7BFFC031C23707B6839
:104B30000B337A680B3211783A1C0C3212784A40E7
:104B4000D1B23A1C0E3212784A40D2B21A707B6847
:104B50000C331A787B680D331B785340DAB27B68CC
:104B60000E331B785340D9B27B680F331A783B1C45
:104B70000E334A401A703B1C0D337A68127B1A7050
:104B80007B680C3319787B680D331A783B1C0C3327
:104B90004A401A703C1C0C343B1C0C331B78181C0C
:104BA000FFF782FC031C23707B680C337A680C329D
:104BB00011783A1C0C3212784A40D1B23A1C0E32AB
:104BC00012784A40D2B21A707B680D3319787B682C
:104BD0000E331A783B1C0C334A401A703C1C0C34C0
:104BE0003B1C0C331B78181CFFF75EFC031C237066
:104BF0007B680D337A680D3211783A1C0C321278CA
:104C00004A40D1B23A1C0E3212784A40D2B21A70DF
:104C10007B680E3319787B680F331A783B1C0C3392
:104C20004A401A703C1C0C343B1C0C331B78181C7B
:104C3000FFF73AFC031C23707B680E337A680E3250
:104C400011783A1C0C3212784A40D1B23A1C0E321A
:104C500012784A40D2B21A707B680F3319783B1C25
:104C60000C333A1C0D3212784A401A703C1C0C343A
:104C70003B1C0C331B78181CFFF716FC031C23701D
:104C80007B680F337A680F3211783A1C0C32127835
:104C90004A40D1B23A1C0E3212784A40D2B21A704F
:104CA0003B1C0F331A783B1C0F3301321A703B1C2C
:104CB0000F331B78082B00D81EE47B681A783B1C46
:104CC0000F331B781B013968CB181B785340DBB2BC
:104CD000EB4AD25C7B681A707B6804337A680432D2
:104CE00011783A1C0F321278120104323868821897
:104CF00012784A40D2B2E2498A5C1A707B68083363
:104D00007A68083211783A1C0F3212781201083290
:104D10003868821812784A40D2B2D9498A5C1A702F
:104D20007B680C337A680C3211783A1C0F32127897
:104D300012010C323868821812784A40D2B2D04937
:104D40008A5C1A707B68013319783B1C0F331B781F
:104D50001B0101333A68D3181A783B1C0E334A40C2
:104D60001A707B6801337A68053211783A1C0F3269
:104D70001278120105323868821812784A40D2B28D
:104D8000BF498A5C1A707B6805337A6809321178EA
:104D90003A1C0F32127812010932386882181278E0
:104DA0004A40D2B2B6498A5C1A707B6809337A6885
:104DB0000D3211783A1C0F32127812010D32386818
:104DC000821812784A40D2B2AD498A5C1A707B6868
:104DD0000D333A1C0E321278A9498A5C1A707B682E
:104DE000023319783B1C0F331B781B0102333A68DE
:104DF000D3181A783B1C0E334A401A707B6806336E
:104E000019783B1C0F331B781B0106333A68D31803
:104E10001A783B1C0D334A401A707B6802337A685B
:104E20000A3211783A1C0F32127812010A323868AD
:104E3000821812784A40D2B291498A5C1A707B6813
:104E400006337A680E3211783A1C0F32127812014A
:104E50000E323868821812784A40D2B288498A5C89
:104E60001A707B680A333A1C0E32127884498A5CC5
:104E70001A707B680E333A1C0D32127880498A5CB6
:104E80001A707B680F3319783B1C0F331B781B019A
:104E90000F333A68D3181A783B1C0E334A401A7005
:104EA0007B680F337A680B3211783A1C0F32127814
:104EB00012010B323868821812784A40D2B2704917
:104EC0008A5C1A707B680B337A68073211783A1C57
:104ED0000F321278120107323868821812784A406D
:104EE000D2B267498A5C1A707B6807337A680332EA
:104EF00011783A1C0F321278120103323868821886
:104F000012784A40D2B25E498A5C1A707B680333D9
:104F10003A1C0E3212785A498A5C1A707B681A78E9
:104F20003B68A0331B785340DAB27B681A707B6809
:104F300001337A68013211783A68A13212784A4016
:104F4000D2B21A707B6802337A68023211783A68FA
:104F5000A23212784A40D2B21A707B6803337A6860
:104F6000033211783A68A33212784A40D2B21A70EA
:104F70007B6804337A68043211783A68A432127874
:104F80004A40D2B21A707B6805337A6805321178CC
:104F90003A68A53212784A40D2B21A707B6806335A
:104FA0007A68063211783A68A63212784A40D2B24C
:104FB0001A707B6807337A68073211783A68A7322B
:104FC00012784A40D2B21A707B6808337A68083285
:104FD00011783A68A83212784A40D2B21A707B68C7
:104FE00009337A68093211783A68A93212784A404E
:104FF000D2B21A707B680A337A680A3211783A683A
:10500000AA3212784A40D2B21A707B680B337A689F
:105010000B3211783A68AB3212784A40D2B21A7029
:105020007B680C337A680C3211783A68AC321278AB
:105030004A40D2B21A707B680D337A680D3211780B
:105040003A68AD3212784A40D2B21A707B680E3399
:105050007A680E3211783A68AE3212784A40D2B28B
:105060001A707B680F337A680F3211783A68AF3262
:1050700012784A40D2B21A70BD4605B090BDC04603
:1050800074D6000090B585B000AF786039603B1CE5
:105090000F3309221A707B681A783B68A0331B789B
:1050A0005340DAB27B681A707B6801337A68013248
:1050B00011783A68A13212784A40D2B21A707B68ED
:1050C00002337A68023211783A68A23212784A4082
:1050D000D2B21A707B6803337A68033211783A6867
:1050E000A33212784A40D2B21A707B6804337A68CD
:1050F000043211783A68A43212784A40D2B21A7057
:105100007B6805337A68053211783A68A5321278DF
:105110004A40D2B21A707B6806337A680632117838
:105120003A68A63212784A40D2B21A707B680733C6
:105130007A68073211783A68A73212784A40D2B2B8
:105140001A707B6808337A68083211783A68A83296
:1051500012784A40D2B21A707B6809337A680932F1
:1051600011783A68A93212784A40D2B21A707B6834
:105170000A337A680A3211783A68AA3212784A40B9
:10518000D2B21A707B680B337A680B3211783A68A6
:10519000AB3212784A40D2B21A707B680C337A680C
:1051A0000C3211783A68AC3212784A40D2B21A7096
:1051B0007B680D337A680D3211783A68AD32127817
:1051C0004A40D2B21A707B680E337A680E32117878
:1051D0003A68AE3212784A40D2B21A707B680F3306
:1051E0007A680F3211783A68AF3212784A40D2B2F8
:1051F0001A707B681B78A24AD25C3B1C0F331B7869
:105200005BB21B013968CB181B785340DAB27B685C
:105210001A707B6804337A68043212789849895C82
:105220003A1C0F32127852B21201043238688218D6
:1052300012784A40D2B21A707B6808337A68083212
:1052400012788F49895C3A1C0F32127852B21201DF
:1052500008323868821812784A40D2B21A707B68D5
:105260000C337A680C3212788549895C3A1C0F320B
:10527000127852B212010C323868821812784A4001
:10528000D2B21A707B680D331B787D4AD15C3B1C0F
:105290000F331B785BB21B0101333A68D3181A78BD
:1052A0003B1C0E334A401A707B680D337A68093212
:1052B00012787349895C3A1C0F32127852B212018B
:1052C0000D323868821812784A40D2B21A707B6860
:1052D00009337A68053212786949895C3A1C0F32C1
:1052E000127852B2120109323868821812784A4094
:1052F000D2B21A707B6805337A680132127860493D
:10530000895C3A1C0F32127852B2120105323868A9
:10531000821812784A40D2B21A707B6801333A1C64
:105320000E3212781A707B6802331B78544AD15CB3
:105330003B1C0F331B785BB21B010A333A68D3184E
:105340001A783B1C0E334A401A707B6806331B7870
:105350004B4AD15C3B1C0F331B785BB21B010E33F5
:105360003A68D3181A783B1C0D334A401A707B6890
:1053700002337A680A3212784149895C3A1C0F324A
:10538000127852B2120102323868821812784A40FA
:10539000D2B21A707B6806337A680E3212783849B6
:1053A000895C3A1C0F32127852B212010632386808
:1053B000821812784A40D2B21A707B680A333A1CBB
:1053C0000E3212781A707B680E333A1C0D32127846
:1053D0001A707B6803331B78294AD15C3B1C0F335E
:1053E0001B785BB21B010F333A68D3181A783B1C49
:1053F0000E334A401A707B6803337A68073212789A
:105400001F49895C3A1C0F32127852B212010332E2
:105410003868821812784A40D2B21A707B68073313
:105420007A680B3212781649895C3A1C0F3212786E
:1054300052B2120107323868821812784A40D2B24A
:105440001A707B680B337A680F3212780C49895CCA
:105450003A1C0F32127852B212010B32386882189D
:1054600012784A40D2B21A707B680F333A1C0E325F
:1054700012781A703B1C0F3308221A7000F02FFDAF
:1054800074D700007B681A787B6802331B7853401E
:10549000DBB2181CFFF708F8031C3C1C0E34181C68
:1054A000FFF702F8031C23707B6801331A787B68CE
:1054B00003331B785340DBB2181CFEF7F5FF031CC7
:1054C0003C1C0D34181CFEF7EFFF031C23707B6897
:1054D0001A783B1C0E331B785340DAB27B681A7083
:1054E0007B6801337A68013211783A1C0D321278E8
:1054F0004A40D2B21A707B6802337A68023211785D
:105500003A1C0E3212784A40D2B21A707B680333CA
:105510007A68033211783A1C0D3212784A40D2B2BE
:105520001A707B6804331A787B6806331B78534003
:10553000DBB2181CFEF7B8FF031C3C1C0E34181C11
:10554000FEF7B2FF031C23707B6805331A787B6873
:1055500007331B785340DBB2181CFEF7A5FF031C72
:105560003C1C0D34181CFEF79FFF031C23707B6846
:1055700004337A68043211783A1C0E3212784A40A9
:10558000D2B21A707B6805337A68053211783A1CFA
:105590000D3212784A40D2B21A707B6806337A68AC
:1055A000063211783A1C0E3212784A40D2B21A7082
:1055B0007B6807337A68073211783A1C0D3212780B
:1055C0004A40D2B21A707B6808331A787B680A3373
:1055D0001B785340DBB2181CFEF766FF031C3C1C13
:1055E0000E34181CFEF760FF031C23707B68093320
:1055F0001A787B680B331B785340DBB2181CFEF71C
:1056000053FF031C3C1C0D34181CFEF74DFF031CFC
:1056100023707B6808337A68083211783A1C0E329E
:1056200012784A40D2B21A707B6809337A6809321C
:1056300011783A1C0D3212784A40D2B21A707B6847
:105640000A337A680A3211783A1C0E3212784A40CC
:10565000D2B21A707B680B337A680B3211783A1C1D
:105660000D3212784A40D2B21A707B680C331A7825
:105670007B680E331B785340DBB2181CFEF714FF17
:10568000031C3C1C0E34181CFEF70EFF031C237079
:105690007B680D331A787B680F331B785340DBB27D
:1056A000181CFEF701FF031C3C1C0D34181CFEF7F0
:1056B000FBFE031C23707B680C337A680C32117874
:1056C0003A1C0E3212784A40D2B21A707B680D33FF
:1056D0007A680D3211783A1C0D3212784A40D2B2F3
:1056E0001A707B680E337A680E3211783A1C0E32CB
:1056F00012784A40D2B21A707B680F337A680F3240
:1057000011783A1C0D3212784A40D2B21A707B6876
:105710001A787B6801331B785340DAB27B68023316
:105720001B785340D9B27B6803331A783B1C0E3385
:105730004A401A703B1C0D337A6812781A707B68E5
:1057400019787B6801331A783B1C0C334A401A7075
:105750003C1C0C343B1C0C331B78181CFEF7A4FEBD
:10576000031C23707B681A783B1C0C331B78534056
:10577000DAB23B1C0E331B785340DAB27B681A70E6
:105780007B68013319787B6802331A783B1C0C3331
:105790004A401A703C1C0C343B1C0C331B78181C00
:1057A000FEF782FE031C23707B6801337A680132A6
:1057B00011783A1C0C3212784A40D1B23A1C0E329F
:1057C00012784A40D2B21A707B68023319787B682B
:1057D00003331A783B1C0C334A401A703C1C0C34BF
:1057E0003B1C0C331B78181CFEF75EFE031C237059
:1057F0007B6802337A68023211783A1C0C321278D4
:105800004A40D1B23A1C0E3212784A40D2B21A70D3
:105810007B68033319783B1C0C333A1C0D32127829
:105820004A401A703C1C0C343B1C0C331B78181C6F
:10583000FEF73AFE031C23707B6803337A68033259
:1058400011783A1C0C3212784A40D1B23A1C0E320E
:1058500012784A40D2B21A707B6804331A787B6897
:1058600005331B785340DAB27B6806331B7853400C
:10587000D9B27B6807331A783B1C0E334A401A7042
:105880003B1C0D337A6812791A707B6804331978DF
:105890007B6805331A783B1C0C334A401A703C1C59
:1058A0000C343B1C0C331B78181CFEF7FDFD031C4D
:1058B00023707B6804337A68043211783A1C0C3206
:1058C00012784A40D1B23A1C0E3212784A40D2B213
:1058D0001A707B68053319787B6806331A783B1C8D
:1058E0000C334A401A703C1C0C343B1C0C331B78A4
:1058F000181CFEF7D9FD031C23707B6805337A68FA
:10590000053211783A1C0C3212784A40D1B23A1C56
:105910000E3212784A40D2B21A707B680633197878
:105920007B6807331A783B1C0C334A401A703C1CC6
:105930000C343B1C0C331B78181CFEF7B5FD031C04
:1059400023707B6806337A68063211783A1C0C3271
:1059500012784A40D1B23A1C0E3212784A40D2B282
:105960001A707B68073319783B1C0C333A1C0D32D4
:1059700012784A401A703C1C0C343B1C0C331B78C8
:10598000181CFEF791FD031C23707B6807337A68AF
:10599000073211783A1C0C3212784A40D1B23A1CC4
:1059A0000E3212784A40D2B21A707B6808331A78E5
:1059B0007B6809331B785340DAB27B680A331B7863
:1059C0005340D9B27B680B331A783B1C0E334A40E4
:1059D0001A703B1C0D337A68127A1A707B68083390
:1059E00019787B6809331A783B1C0C334A401A70CB
:1059F0003C1C0C343B1C0C331B78181CFEF754FD6C
:105A0000031C23707B6808337A68083211783A1CCB
:105A10000C3212784A40D1B23A1C0E3212784A4007
:105A2000D2B21A707B68093319787B680A331A7806
:105A30003B1C0C334A401A703C1C0C343B1C0C338E
:105A40001B78181CFEF730FD031C23707B6809339C
:105A50007A68093211783A1C0C3212784A40D1B275
:105A60003A1C0E3212784A40D2B21A707B680A335E
:105A700019787B680B331A783B1C0C334A401A7038
:105A80003C1C0C343B1C0C331B78181CFEF70CFD23
:105A9000031C23707B680A337A680A3211783A1C37
:105AA0000C3212784A40D1B23A1C0E3212784A4077
:105AB000D2B21A707B680B3319783B1C0C333A1C3A
:105AC0000D3212784A401A703C1C0C343B1C0C33CB
:105AD0001B78181CFEF7E8FC031C23707B680B3353
